{
  "_format": "hh-sol-artifact-1",
  "contractName": "BirthCertificateNFT",
  "sourceName": "contracts/BirthCertificateNFT.sol",
  "abi": [
    {
      "inputs": [],
      "stateMutability": "nonpayable",
      "type": "constructor"
    },
    {
      "inputs": [
        {
          "internalType": "address",
          "name": "sender",
          "type": "address"
        },
        {
          "internalType": "uint256",
          "name": "tokenId",
          "type": "uint256"
        },
        {
          "internalType": "address",
          "name": "owner",
          "type": "address"
        }
      ],
      "name": "ERC721IncorrectOwner",
      "type": "error"
    },
    {
      "inputs": [
        {
          "internalType": "address",
          "name": "operator",
          "type": "address"
        },
        {
          "internalType": "uint256",
          "name": "tokenId",
          "type": "uint256"
        }
      ],
      "name": "ERC721InsufficientApproval",
      "type": "error"
    },
    {
      "inputs": [
        {
          "internalType": "address",
          "name": "approver",
          "type": "address"
        }
      ],
      "name": "ERC721InvalidApprover",
      "type": "error"
    },
    {
      "inputs": [
        {
          "internalType": "address",
          "name": "operator",
          "type": "address"
        }
      ],
      "name": "ERC721InvalidOperator",
      "type": "error"
    },
    {
      "inputs": [
        {
          "internalType": "address",
          "name": "owner",
          "type": "address"
        }
      ],
      "name": "ERC721InvalidOwner",
      "type": "error"
    },
    {
      "inputs": [
        {
          "internalType": "address",
          "name": "receiver",
          "type": "address"
        }
      ],
      "name": "ERC721InvalidReceiver",
      "type": "error"
    },
    {
      "inputs": [
        {
          "internalType": "address",
          "name": "sender",
          "type": "address"
        }
      ],
      "name": "ERC721InvalidSender",
      "type": "error"
    },
    {
      "inputs": [
        {
          "internalType": "uint256",
          "name": "tokenId",
          "type": "uint256"
        }
      ],
      "name": "ERC721NonexistentToken",
      "type": "error"
    },
    {
      "inputs": [
        {
          "internalType": "address",
          "name": "owner",
          "type": "address"
        }
      ],
      "name": "OwnableInvalidOwner",
      "type": "error"
    },
    {
      "inputs": [
        {
          "internalType": "address",
          "name": "account",
          "type": "address"
        }
      ],
      "name": "OwnableUnauthorizedAccount",
      "type": "error"
    },
    {
      "anonymous": false,
      "inputs": [
        {
          "indexed": true,
          "internalType": "address",
          "name": "owner",
          "type": "address"
        },
        {
          "indexed": true,
          "internalType": "address",
          "name": "approved",
          "type": "address"
        },
        {
          "indexed": true,
          "internalType": "uint256",
          "name": "tokenId",
          "type": "uint256"
        }
      ],
      "name": "Approval",
      "type": "event"
    },
    {
      "anonymous": false,
      "inputs": [
        {
          "indexed": true,
          "internalType": "address",
          "name": "owner",
          "type": "address"
        },
        {
          "indexed": true,
          "internalType": "address",
          "name": "operator",
          "type": "address"
        },
        {
          "indexed": false,
          "internalType": "bool",
          "name": "approved",
          "type": "bool"
        }
      ],
      "name": "ApprovalForAll",
      "type": "event"
    },
    {
      "anonymous": false,
      "inputs": [
        {
          "indexed": false,
          "internalType": "uint256",
          "name": "_fromTokenId",
          "type": "uint256"
        },
        {
          "indexed": false,
          "internalType": "uint256",
          "name": "_toTokenId",
          "type": "uint256"
        }
      ],
      "name": "BatchMetadataUpdate",
      "type": "event"
    },
    {
      "anonymous": false,
      "inputs": [
        {
          "indexed": true,
          "internalType": "uint256",
          "name": "tokenId",
          "type": "uint256"
        },
        {
          "indexed": true,
          "internalType": "address",
          "name": "recipient",
          "type": "address"
        },
        {
          "indexed": false,
          "internalType": "string",
          "name": "name",
          "type": "string"
        },
        {
          "indexed": false,
          "internalType": "string",
          "name": "dateOfBirth",
          "type": "string"
        },
        {
          "indexed": false,
          "internalType": "string",
          "name": "placeOfBirth",
          "type": "string"
        }
      ],
      "name": "CertificateMinted",
      "type": "event"
    },
    {
      "anonymous": false,
      "inputs": [
        {
          "indexed": false,
          "internalType": "uint256",
          "name": "_tokenId",
          "type": "uint256"
        }
      ],
      "name": "MetadataUpdate",
      "type": "event"
    },
    {
      "anonymous": false,
      "inputs": [
        {
          "indexed": true,
          "internalType": "address",
          "name": "previousOwner",
          "type": "address"
        },
        {
          "indexed": true,
          "internalType": "address",
          "name": "newOwner",
          "type": "address"
        }
      ],
      "name": "OwnershipTransferred",
      "type": "event"
    },
    {
      "anonymous": false,
      "inputs": [
        {
          "indexed": true,
          "internalType": "address",
          "name": "from",
          "type": "address"
        },
        {
          "indexed": true,
          "internalType": "address",
          "name": "to",
          "type": "address"
        },
        {
          "indexed": true,
          "internalType": "uint256",
          "name": "tokenId",
          "type": "uint256"
        }
      ],
      "name": "Transfer",
      "type": "event"
    },
    {
      "inputs": [
        {
          "internalType": "address",
          "name": "to",
          "type": "address"
        },
        {
          "internalType": "uint256",
          "name": "tokenId",
          "type": "uint256"
        }
      ],
      "name": "approve",
      "outputs": [],
      "stateMutability": "nonpayable",
      "type": "function"
    },
    {
      "inputs": [
        {
          "internalType": "address",
          "name": "owner",
          "type": "address"
        }
      ],
      "name": "balanceOf",
      "outputs": [
        {
          "internalType": "uint256",
          "name": "",
          "type": "uint256"
        }
      ],
      "stateMutability": "view",
      "type": "function"
    },
    {
      "inputs": [
        {
          "internalType": "uint256",
          "name": "",
          "type": "uint256"
        }
      ],
      "name": "certificates",
      "outputs": [
        {
          "internalType": "string",
          "name": "fullName",
          "type": "string"
        },
        {
          "internalType": "string",
          "name": "dateOfBirth",
          "type": "string"
        },
        {
          "internalType": "string",
          "name": "placeOfBirth",
          "type": "string"
        },
        {
          "internalType": "string",
          "name": "certificateCID",
          "type": "string"
        },
        {
          "internalType": "uint256",
          "name": "mintedAt",
          "type": "uint256"
        },
        {
          "internalType": "bool",
          "name": "verified",
          "type": "bool"
        }
      ],
      "stateMutability": "view",
      "type": "function"
    },
    {
      "inputs": [
        {
          "internalType": "uint256",
          "name": "tokenId",
          "type": "uint256"
        }
      ],
      "name": "getApproved",
      "outputs": [
        {
          "internalType": "address",
          "name": "",
          "type": "address"
        }
      ],
      "stateMutability": "view",
      "type": "function"
    },
    {
      "inputs": [
        {
          "internalType": "uint256",
          "name": "tokenId",
          "type": "uint256"
        }
      ],
      "name": "getCertificateInfo",
      "outputs": [
        {
          "components": [
            {
              "internalType": "string",
              "name": "fullName",
              "type": "string"
            },
            {
              "internalType": "string",
              "name": "dateOfBirth",
              "type": "string"
            },
            {
              "internalType": "string",
              "name": "placeOfBirth",
              "type": "string"
            },
            {
              "internalType": "string",
              "name": "certificateCID",
              "type": "string"
            },
            {
              "internalType": "uint256",
              "name": "mintedAt",
              "type": "uint256"
            },
            {
              "internalType": "bool",
              "name": "verified",
              "type": "bool"
            }
          ],
          "internalType": "struct BirthCertificateNFT.CertificateInfo",
          "name": "",
          "type": "tuple"
        }
      ],
      "stateMutability": "view",
      "type": "function"
    },
    {
      "inputs": [
        {
          "internalType": "address",
          "name": "owner",
          "type": "address"
        }
      ],
      "name": "getCertificatesByOwner",
      "outputs": [
        {
          "internalType": "uint256[]",
          "name": "",
          "type": "uint256[]"
        }
      ],
      "stateMutability": "view",
      "type": "function"
    },
    {
      "inputs": [],
      "name": "getCurrentTokenId",
      "outputs": [
        {
          "internalType": "uint256",
          "name": "",
          "type": "uint256"
        }
      ],
      "stateMutability": "view",
      "type": "function"
    },
    {
      "inputs": [
        {
          "internalType": "address",
          "name": "owner",
          "type": "address"
        },
        {
          "internalType": "address",
          "name": "operator",
          "type": "address"
        }
      ],
      "name": "isApprovedForAll",
      "outputs": [
        {
          "internalType": "bool",
          "name": "",
          "type": "bool"
        }
      ],
      "stateMutability": "view",
      "type": "function"
    },
    {
      "inputs": [
        {
          "internalType": "address",
          "name": "to",
          "type": "address"
        },
        {
          "internalType": "string",
          "name": "uri",
          "type": "string"
        }
      ],
      "name": "mint",
      "outputs": [
        {
          "internalType": "uint256",
          "name": "",
          "type": "uint256"
        }
      ],
      "stateMutability": "nonpayable",
      "type": "function"
    },
    {
      "inputs": [
        {
          "internalType": "address",
          "name": "to",
          "type": "address"
        },
        {
          "internalType": "string",
          "name": "uri",
          "type": "string"
        },
        {
          "internalType": "string",
          "name": "fullName",
          "type": "string"
        },
        {
          "internalType": "string",
          "name": "dateOfBirth",
          "type": "string"
        },
        {
          "internalType": "string",
          "name": "placeOfBirth",
          "type": "string"
        },
        {
          "internalType": "string",
          "name": "certificateCID",
          "type": "string"
        }
      ],
      "name": "mintCertificate",
      "outputs": [
        {
          "internalType": "uint256",
          "name": "",
          "type": "uint256"
        }
      ],
      "stateMutability": "nonpayable",
      "type": "function"
    },
    {
      "inputs": [],
      "name": "name",
      "outputs": [
        {
          "internalType": "string",
          "name": "",
          "type": "string"
        }
      ],
      "stateMutability": "view",
      "type": "function"
    },
    {
      "inputs": [],
      "name": "owner",
      "outputs": [
        {
          "internalType": "address",
          "name": "",
          "type": "address"
        }
      ],
      "stateMutability": "view",
      "type": "function"
    },
    {
      "inputs": [
        {
          "internalType": "uint256",
          "name": "tokenId",
          "type": "uint256"
        }
      ],
      "name": "ownerOf",
      "outputs": [
        {
          "internalType": "address",
          "name": "",
          "type": "address"
        }
      ],
      "stateMutability": "view",
      "type": "function"
    },
    {
      "inputs": [],
      "name": "renounceOwnership",
      "outputs": [],
      "stateMutability": "nonpayable",
      "type": "function"
    },
    {
      "inputs": [
        {
          "internalType": "address",
          "name": "from",
          "type": "address"
        },
        {
          "internalType": "address",
          "name": "to",
          "type": "address"
        },
        {
          "internalType": "uint256",
          "name": "tokenId",
          "type": "uint256"
        }
      ],
      "name": "safeTransferFrom",
      "outputs": [],
      "stateMutability": "nonpayable",
      "type": "function"
    },
    {
      "inputs": [
        {
          "internalType": "address",
          "name": "from",
          "type": "address"
        },
        {
          "internalType": "address",
          "name": "to",
          "type": "address"
        },
        {
          "internalType": "uint256",
          "name": "tokenId",
          "type": "uint256"
        },
        {
          "internalType": "bytes",
          "name": "data",
          "type": "bytes"
        }
      ],
      "name": "safeTransferFrom",
      "outputs": [],
      "stateMutability": "nonpayable",
      "type": "function"
    },
    {
      "inputs": [
        {
          "internalType": "address",
          "name": "operator",
          "type": "address"
        },
        {
          "internalType": "bool",
          "name": "approved",
          "type": "bool"
        }
      ],
      "name": "setApprovalForAll",
      "outputs": [],
      "stateMutability": "nonpayable",
      "type": "function"
    },
    {
      "inputs": [
        {
          "internalType": "bytes4",
          "name": "interfaceId",
          "type": "bytes4"
        }
      ],
      "name": "supportsInterface",
      "outputs": [
        {
          "internalType": "bool",
          "name": "",
          "type": "bool"
        }
      ],
      "stateMutability": "view",
      "type": "function"
    },
    {
      "inputs": [],
      "name": "symbol",
      "outputs": [
        {
          "internalType": "string",
          "name": "",
          "type": "string"
        }
      ],
      "stateMutability": "view",
      "type": "function"
    },
    {
      "inputs": [
        {
          "internalType": "uint256",
          "name": "tokenId",
          "type": "uint256"
        }
      ],
      "name": "tokenURI",
      "outputs": [
        {
          "internalType": "string",
          "name": "",
          "type": "string"
        }
      ],
      "stateMutability": "view",
      "type": "function"
    },
    {
      "inputs": [],
      "name": "totalSupply",
      "outputs": [
        {
          "internalType": "uint256",
          "name": "",
          "type": "uint256"
        }
      ],
      "stateMutability": "view",
      "type": "function"
    },
    {
      "inputs": [
        {
          "internalType": "address",
          "name": "from",
          "type": "address"
        },
        {
          "internalType": "address",
          "name": "to",
          "type": "address"
        },
        {
          "internalType": "uint256",
          "name": "tokenId",
          "type": "uint256"
        }
      ],
      "name": "transferFrom",
      "outputs": [],
      "stateMutability": "nonpayable",
      "type": "function"
    },
    {
      "inputs": [
        {
          "internalType": "address",
          "name": "newOwner",
          "type": "address"
        }
      ],
      "name": "transferOwnership",
      "outputs": [],
      "stateMutability": "nonpayable",
      "type": "function"
    },
    {
      "inputs": [
        {
          "internalType": "uint256",
          "name": "tokenId",
          "type": "uint256"
        }
      ],
      "name": "verifyCertificate",
      "outputs": [
        {
          "internalType": "bool",
          "name": "",
          "type": "bool"
        }
      ],
      "stateMutability": "view",
      "type": "function"
    }
  ],
  "bytecode": "0x60806040523480156200001157600080fd5b50336040518060400160405280601581526020017f4269727468204365727469666963617465204e465400000000000000000000008152506040518060400160405280600581526020017f42434e465400000000000000000000000000000000000000000000000000000081525081600090816200009091906200047a565b508060019081620000a291906200047a565b505050600073ffffffffffffffffffffffffffffffffffffffff168173ffffffffffffffffffffffffffffffffffffffff16036200011a5760006040517f1e4fbdf7000000000000000000000000000000000000000000000000000000008152600401620001119190620005a6565b60405180910390fd5b6200012b816200013a60201b60201c565b506000600881905550620005c3565b6000600760009054906101000a900473ffffffffffffffffffffffffffffffffffffffff16905081600760006101000a81548173ffffffffffffffffffffffffffffffffffffffff021916908373ffffffffffffffffffffffffffffffffffffffff1602179055508173ffffffffffffffffffffffffffffffffffffffff168173ffffffffffffffffffffffffffffffffffffffff167f8be0079c531659141344cd1fd0a4f28419497f9722a3daafe3b4186f6b6457e060405160405180910390a35050565b600081519050919050565b7f4e487b7100000000000000000000000000000000000000000000000000000000600052604160045260246000fd5b7f4e487b7100000000000000000000000000000000000000000000000000000000600052602260045260246000fd5b600060028204905060018216806200028257607f821691505b6020821081036200029857620002976200023a565b5b50919050565b60008190508160005260206000209050919050565b60006020601f8301049050919050565b600082821b905092915050565b600060088302620003027fffffffffffffffffffffffffffffffffffffffffffffffffffffffffffffffff82620002c3565b6200030e8683620002c3565b95508019841693508086168417925050509392505050565b6000819050919050565b6000819050919050565b60006200035b620003556200034f8462000326565b62000330565b62000326565b9050919050565b6000819050919050565b62000377836200033a565b6200038f620003868262000362565b848454620002d0565b825550505050565b600090565b620003a662000397565b620003b38184846200036c565b505050565b5b81811015620003db57620003cf6000826200039c565b600181019050620003b9565b5050565b601f8211156200042a57620003f4816200029e565b620003ff84620002b3565b810160208510156200040f578190505b620004276200041e85620002b3565b830182620003b8565b50505b505050565b600082821c905092915050565b60006200044f600019846008026200042f565b1980831691505092915050565b60006200046a83836200043c565b9150826002028217905092915050565b620004858262000200565b67ffffffffffffffff811115620004a157620004a06200020b565b5b620004ad825462000269565b620004ba828285620003df565b600060209050601f831160018114620004f25760008415620004dd578287015190505b620004e985826200045c565b86555062000559565b601f19841662000502866200029e565b60005b828110156200052c5784890151825560018201915060208501945060208101905062000505565b868310156200054c578489015162000548601f8916826200043c565b8355505b6001600288020188555050505b505050505050565b600073ffffffffffffffffffffffffffffffffffffffff82169050919050565b60006200058e8262000561565b9050919050565b620005a08162000581565b82525050565b6000602082019050620005bd600083018462000595565b92915050565b61355d80620005d36000396000f3fe608060405234801561001057600080fd5b50600436106101585760003560e01c806370a08231116100c3578063b88d4fde1161007c578063b88d4fde146103f2578063c87b56dd1461040e578063d0def5211461043e578063e620f9e31461046e578063e985e9c51461049e578063f2fde38b146104ce57610158565b806370a0823114610330578063715018a6146103605780638d13d72d1461036a5780638da5cb5b1461039a57806395d89b41146103b8578063a22cb465146103d657610158565b80631db73840116101155780631db738401461024557806323b872dd1461027557806342842e0e1461029157806356189236146102ad5780636352211e146102cb578063663b3e22146102fb57610158565b806301ffc9a71461015d57806306fdde031461018d578063081812fc146101ab578063095ea7b3146101db5780631692a942146101f757806318160ddd14610227575b600080fd5b6101776004803603810190610172919061253f565b6104ea565b6040516101849190612587565b60405180910390f35b6101956104fc565b6040516101a29190612632565b60405180910390f35b6101c560048036038101906101c0919061268a565b61058e565b6040516101d291906126f8565b60405180910390f35b6101f560048036038101906101f0919061273f565b6105aa565b005b610211600480360381019061020c919061268a565b6105c0565b60405161021e9190612587565b60405180910390f35b61022f610663565b60405161023c919061278e565b60405180910390f35b61025f600480360381019061025a91906127a9565b61066d565b60405161026c9190612894565b60405180910390f35b61028f600480360381019061028a91906128b6565b610760565b005b6102ab60048036038101906102a691906128b6565b610862565b005b6102b5610882565b6040516102c2919061278e565b60405180910390f35b6102e560048036038101906102e0919061268a565b61088c565b6040516102f291906126f8565b60405180910390f35b6103156004803603810190610310919061268a565b61089e565b60405161032796959493929190612909565b60405180910390f35b61034a600480360381019061034591906127a9565b610b07565b604051610357919061278e565b60405180910390f35b610368610bc1565b005b610384600480360381019061037f9190612abb565b610bd5565b604051610391919061278e565b60405180910390f35b6103a2610d3b565b6040516103af91906126f8565b60405180910390f35b6103c0610d65565b6040516103cd9190612632565b60405180910390f35b6103f060048036038101906103eb9190612c00565b610df7565b005b61040c60048036038101906104079190612ce1565b610e0d565b005b6104286004803603810190610423919061268a565b610e32565b6040516104359190612632565b60405180910390f35b61045860048036038101906104539190612d64565b610e44565b604051610465919061278e565b60405180910390f35b6104886004803603810190610483919061268a565b610e8b565b6040516104959190612eb7565b60405180910390f35b6104b860048036038101906104b39190612ed9565b61119c565b6040516104c59190612587565b60405180910390f35b6104e860048036038101906104e391906127a9565b611230565b005b60006104f5826112b6565b9050919050565b60606000805461050b90612f48565b80601f016020809104026020016040519081016040528092919081815260200182805461053790612f48565b80156105845780601f1061055957610100808354040283529160200191610584565b820191906000526020600020905b81548152906001019060200180831161056757829003601f168201915b5050505050905090565b600061059982611317565b506105a38261139f565b9050919050565b6105bc82826105b76113dc565b6113e4565b5050565b60008073ffffffffffffffffffffffffffffffffffffffff166105e2836113f6565b73ffffffffffffffffffffffffffffffffffffffff1603610638576040517f08c379a000000000000000000000000000000000000000000000000000000000815260040161062f90612fc5565b60405180910390fd5b6009600083815260200190815260200160002060050160009054906101000a900460ff169050919050565b6000600854905090565b6060600061067a83610b07565b905060008167ffffffffffffffff81111561069857610697612990565b5b6040519080825280602002602001820160405280156106c65781602001602082028036833780820191505090505b5090506000805b600854811015610754578573ffffffffffffffffffffffffffffffffffffffff166106f7826113f6565b73ffffffffffffffffffffffffffffffffffffffff1603610741578083838151811061072657610725612fe5565b5b602002602001018181525050818061073d90613043565b9250505b808061074c90613043565b9150506106cd565b50819350505050919050565b600073ffffffffffffffffffffffffffffffffffffffff168273ffffffffffffffffffffffffffffffffffffffff16036107d25760006040517f64a0ae920000000000000000000000000000000000000000000000000000000081526004016107c991906126f8565b60405180910390fd5b60006107e683836107e16113dc565b611433565b90508373ffffffffffffffffffffffffffffffffffffffff168173ffffffffffffffffffffffffffffffffffffffff161461085c578382826040517f64283d7b0000000000000000000000000000000000000000000000000000000081526004016108539392919061308b565b60405180910390fd5b50505050565b61087d83838360405180602001604052806000815250610e0d565b505050565b6000600854905090565b600061089782611317565b9050919050565b60096020528060005260406000206000915090508060000180546108c190612f48565b80601f01602080910402602001604051908101604052809291908181526020018280546108ed90612f48565b801561093a5780601f1061090f5761010080835404028352916020019161093a565b820191906000526020600020905b81548152906001019060200180831161091d57829003601f168201915b50505050509080600101805461094f90612f48565b80601f016020809104026020016040519081016040528092919081815260200182805461097b90612f48565b80156109c85780601f1061099d576101008083540402835291602001916109c8565b820191906000526020600020905b8154815290600101906020018083116109ab57829003601f168201915b5050505050908060020180546109dd90612f48565b80601f0160208091040260200160405190810160405280929190818152602001828054610a0990612f48565b8015610a565780601f10610a2b57610100808354040283529160200191610a56565b820191906000526020600020905b815481529060010190602001808311610a3957829003601f168201915b505050505090806003018054610a6b90612f48565b80601f0160208091040260200160405190810160405280929190818152602001828054610a9790612f48565b8015610ae45780601f10610ab957610100808354040283529160200191610ae4565b820191906000526020600020905b815481529060010190602001808311610ac757829003601f168201915b5050505050908060040154908060050160009054906101000a900460ff16905086565b60008073ffffffffffffffffffffffffffffffffffffffff168273ffffffffffffffffffffffffffffffffffffffff1603610b7a5760006040517f89c62b64000000000000000000000000000000000000000000000000000000008152600401610b7191906126f8565b60405180910390fd5b600360008373ffffffffffffffffffffffffffffffffffffffff1673ffffffffffffffffffffffffffffffffffffffff168152602001908152602001600020549050919050565b610bc961164d565b610bd360006116d4565b565b6000610bdf61164d565b6000600854905060086000815480929190610bf990613043565b9190505550610c08888261179a565b610c1281886117b8565b6040518060c0016040528087815260200186815260200185815260200184815260200142815260200160011515815250600960008381526020019081526020016000206000820151816000019081610c6a919061326e565b506020820151816001019081610c80919061326e565b506040820151816002019081610c96919061326e565b506060820151816003019081610cac919061326e565b506080820151816004015560a08201518160050160006101000a81548160ff0219169083151502179055509050508773ffffffffffffffffffffffffffffffffffffffff16817f22817c0e474339faddc0e52650c24f673575a920e491295c07f517da3a4039c2888888604051610d2593929190613340565b60405180910390a3809150509695505050505050565b6000600760009054906101000a900473ffffffffffffffffffffffffffffffffffffffff16905090565b606060018054610d7490612f48565b80601f0160208091040260200160405190810160405280929190818152602001828054610da090612f48565b8015610ded5780601f10610dc257610100808354040283529160200191610ded565b820191906000526020600020905b815481529060010190602001808311610dd057829003601f168201915b5050505050905090565b610e09610e026113dc565b8383611814565b5050565b610e18848484610760565b610e2c610e236113dc565b85858585611983565b50505050565b6060610e3d82611b34565b9050919050565b6000610e4e61164d565b6000600854905060086000815480929190610e6890613043565b9190505550610e77848261179a565b610e8181846117b8565b8091505092915050565b610e9361249b565b600073ffffffffffffffffffffffffffffffffffffffff16610eb4836113f6565b73ffffffffffffffffffffffffffffffffffffffff1603610f0a576040517f08c379a0000000000000000000000000000000000000000000000000000000008152600401610f0190612fc5565b60405180910390fd5b600960008381526020019081526020016000206040518060c0016040529081600082018054610f3890612f48565b80601f0160208091040260200160405190810160405280929190818152602001828054610f6490612f48565b8015610fb15780601f10610f8657610100808354040283529160200191610fb1565b820191906000526020600020905b815481529060010190602001808311610f9457829003601f168201915b50505050508152602001600182018054610fca90612f48565b80601f0160208091040260200160405190810160405280929190818152602001828054610ff690612f48565b80156110435780601f1061101857610100808354040283529160200191611043565b820191906000526020600020905b81548152906001019060200180831161102657829003601f168201915b5050505050815260200160028201805461105c90612f48565b80601f016020809104026020016040519081016040528092919081815260200182805461108890612f48565b80156110d55780601f106110aa576101008083540402835291602001916110d5565b820191906000526020600020905b8154815290600101906020018083116110b857829003601f168201915b505050505081526020016003820180546110ee90612f48565b80601f016020809104026020016040519081016040528092919081815260200182805461111a90612f48565b80156111675780601f1061113c57610100808354040283529160200191611167565b820191906000526020600020905b81548152906001019060200180831161114a57829003601f168201915b50505050508152602001600482015481526020016005820160009054906101000a900460ff1615151515815250509050919050565b6000600560008473ffffffffffffffffffffffffffffffffffffffff1673ffffffffffffffffffffffffffffffffffffffff16815260200190815260200160002060008373ffffffffffffffffffffffffffffffffffffffff1673ffffffffffffffffffffffffffffffffffffffff16815260200190815260200160002060009054906101000a900460ff16905092915050565b61123861164d565b600073ffffffffffffffffffffffffffffffffffffffff168173ffffffffffffffffffffffffffffffffffffffff16036112aa5760006040517f1e4fbdf70000000000000000000000000000000000000000000000000000000081526004016112a191906126f8565b60405180910390fd5b6112b3816116d4565b50565b6000634906490660e01b7bffffffffffffffffffffffffffffffffffffffffffffffffffffffff1916827bffffffffffffffffffffffffffffffffffffffffffffffffffffffff19161480611310575061130f82611c47565b5b9050919050565b600080611323836113f6565b9050600073ffffffffffffffffffffffffffffffffffffffff168173ffffffffffffffffffffffffffffffffffffffff160361139657826040517f7e27328900000000000000000000000000000000000000000000000000000000815260040161138d919061278e565b60405180910390fd5b80915050919050565b60006004600083815260200190815260200160002060009054906101000a900473ffffffffffffffffffffffffffffffffffffffff169050919050565b600033905090565b6113f18383836001611d29565b505050565b60006002600083815260200190815260200160002060009054906101000a900473ffffffffffffffffffffffffffffffffffffffff169050919050565b60008061143f846113f6565b9050600073ffffffffffffffffffffffffffffffffffffffff168373ffffffffffffffffffffffffffffffffffffffff161461148157611480818486611eee565b5b600073ffffffffffffffffffffffffffffffffffffffff168173ffffffffffffffffffffffffffffffffffffffff1614611512576114c3600085600080611d29565b6001600360008373ffffffffffffffffffffffffffffffffffffffff1673ffffffffffffffffffffffffffffffffffffffff168152602001908152602001600020600082825403925050819055505b600073ffffffffffffffffffffffffffffffffffffffff168573ffffffffffffffffffffffffffffffffffffffff1614611595576001600360008773ffffffffffffffffffffffffffffffffffffffff1673ffffffffffffffffffffffffffffffffffffffff168152602001908152602001600020600082825401925050819055505b846002600086815260200190815260200160002060006101000a81548173ffffffffffffffffffffffffffffffffffffffff021916908373ffffffffffffffffffffffffffffffffffffffff160217905550838573ffffffffffffffffffffffffffffffffffffffff168273ffffffffffffffffffffffffffffffffffffffff167fddf252ad1be2c89b69c2b068fc378daa952ba7f163c4a11628f55a4df523b3ef60405160405180910390a4809150509392505050565b6116556113dc565b73ffffffffffffffffffffffffffffffffffffffff16611673610d3b565b73ffffffffffffffffffffffffffffffffffffffff16146116d2576116966113dc565b6040517f118cdaa70000000000000000000000000000000000000000000000000000000081526004016116c991906126f8565b60405180910390fd5b565b6000600760009054906101000a900473ffffffffffffffffffffffffffffffffffffffff16905081600760006101000a81548173ffffffffffffffffffffffffffffffffffffffff021916908373ffffffffffffffffffffffffffffffffffffffff1602179055508173ffffffffffffffffffffffffffffffffffffffff168173ffffffffffffffffffffffffffffffffffffffff167f8be0079c531659141344cd1fd0a4f28419497f9722a3daafe3b4186f6b6457e060405160405180910390a35050565b6117b4828260405180602001604052806000815250611fb2565b5050565b806006600084815260200190815260200160002090816117d8919061326e565b507ff8e1a15aba9398e019f0b49df1a4fde98ee17ae345cb5f6b5e2c27f5033e8ce782604051611808919061278e565b60405180910390a15050565b600073ffffffffffffffffffffffffffffffffffffffff168273ffffffffffffffffffffffffffffffffffffffff160361188557816040517f5b08ba1800000000000000000000000000000000000000000000000000000000815260040161187c91906126f8565b60405180910390fd5b80600560008573ffffffffffffffffffffffffffffffffffffffff1673ffffffffffffffffffffffffffffffffffffffff16815260200190815260200160002060008473ffffffffffffffffffffffffffffffffffffffff1673ffffffffffffffffffffffffffffffffffffffff16815260200190815260200160002060006101000a81548160ff0219169083151502179055508173ffffffffffffffffffffffffffffffffffffffff168373ffffffffffffffffffffffffffffffffffffffff167f17307eab39ab6107e8899845ad3d59bd9653f200f220920489ca2b5937696c31836040516119769190612587565b60405180910390a3505050565b60008373ffffffffffffffffffffffffffffffffffffffff163b1115611b2d578273ffffffffffffffffffffffffffffffffffffffff1663150b7a02868685856040518563ffffffff1660e01b81526004016119e294939291906133e1565b6020604051808303816000875af1925050508015611a1e57506040513d601f19601f82011682018060405250810190611a1b9190613442565b60015b611aa2573d8060008114611a4e576040519150601f19603f3d011682016040523d82523d6000602084013e611a53565b606091505b506000815103611a9a57836040517f64a0ae92000000000000000000000000000000000000000000000000000000008152600401611a9191906126f8565b60405180910390fd5b805160208201fd5b63150b7a0260e01b7bffffffffffffffffffffffffffffffffffffffffffffffffffffffff1916817bffffffffffffffffffffffffffffffffffffffffffffffffffffffff191614611b2b57836040517f64a0ae92000000000000000000000000000000000000000000000000000000008152600401611b2291906126f8565b60405180910390fd5b505b5050505050565b6060611b3f82611317565b506000600660008481526020019081526020016000208054611b6090612f48565b80601f0160208091040260200160405190810160405280929190818152602001828054611b8c90612f48565b8015611bd95780601f10611bae57610100808354040283529160200191611bd9565b820191906000526020600020905b815481529060010190602001808311611bbc57829003601f168201915b505050505090506000611bea611fd6565b90506000815103611bff578192505050611c42565b600082511115611c34578082604051602001611c1c9291906134ab565b60405160208183030381529060405292505050611c42565b611c3d84611fed565b925050505b919050565b60007f80ac58cd000000000000000000000000000000000000000000000000000000007bffffffffffffffffffffffffffffffffffffffffffffffffffffffff1916827bffffffffffffffffffffffffffffffffffffffffffffffffffffffff19161480611d1257507f5b5e139f000000000000000000000000000000000000000000000000000000007bffffffffffffffffffffffffffffffffffffffffffffffffffffffff1916827bffffffffffffffffffffffffffffffffffffffffffffffffffffffff1916145b80611d225750611d2182612056565b5b9050919050565b8080611d625750600073ffffffffffffffffffffffffffffffffffffffff168273ffffffffffffffffffffffffffffffffffffffff1614155b15611e96576000611d7284611317565b9050600073ffffffffffffffffffffffffffffffffffffffff168373ffffffffffffffffffffffffffffffffffffffff1614158015611ddd57508273ffffffffffffffffffffffffffffffffffffffff168173ffffffffffffffffffffffffffffffffffffffff1614155b8015611df05750611dee818461119c565b155b15611e3257826040517fa9fbf51f000000000000000000000000000000000000000000000000000000008152600401611e2991906126f8565b60405180910390fd5b8115611e9457838573ffffffffffffffffffffffffffffffffffffffff168273ffffffffffffffffffffffffffffffffffffffff167f8c5be1e5ebec7d5bd14f71427d1e84f3dd0314c0f7b2291e5b200ac8c7c3b92560405160405180910390a45b505b836004600085815260200190815260200160002060006101000a81548173ffffffffffffffffffffffffffffffffffffffff021916908373ffffffffffffffffffffffffffffffffffffffff16021790555050505050565b611ef98383836120c0565b611fad57600073ffffffffffffffffffffffffffffffffffffffff168373ffffffffffffffffffffffffffffffffffffffff1603611f6e57806040517f7e273289000000000000000000000000000000000000000000000000000000008152600401611f65919061278e565b60405180910390fd5b81816040517f177e802f000000000000000000000000000000000000000000000000000000008152600401611fa49291906134cf565b60405180910390fd5b505050565b611fbc8383612181565b611fd1611fc76113dc565b6000858585611983565b505050565b606060405180602001604052806000815250905090565b6060611ff882611317565b506000612003611fd6565b90506000815111612023576040518060200160405280600081525061204e565b8061202d8461227a565b60405160200161203e9291906134ab565b6040516020818303038152906040525b915050919050565b60007f01ffc9a7000000000000000000000000000000000000000000000000000000007bffffffffffffffffffffffffffffffffffffffffffffffffffffffff1916827bffffffffffffffffffffffffffffffffffffffffffffffffffffffff1916149050919050565b60008073ffffffffffffffffffffffffffffffffffffffff168373ffffffffffffffffffffffffffffffffffffffff161415801561217857508273ffffffffffffffffffffffffffffffffffffffff168473ffffffffffffffffffffffffffffffffffffffff1614806121395750612138848461119c565b5b8061217757508273ffffffffffffffffffffffffffffffffffffffff1661215f8361139f565b73ffffffffffffffffffffffffffffffffffffffff16145b5b90509392505050565b600073ffffffffffffffffffffffffffffffffffffffff168273ffffffffffffffffffffffffffffffffffffffff16036121f35760006040517f64a0ae920000000000000000000000000000000000000000000000000000000081526004016121ea91906126f8565b60405180910390fd5b600061220183836000611433565b9050600073ffffffffffffffffffffffffffffffffffffffff168173ffffffffffffffffffffffffffffffffffffffff16146122755760006040517f73c6ac6e00000000000000000000000000000000000000000000000000000000815260040161226c91906126f8565b60405180910390fd5b505050565b60606000600161228984612348565b01905060008167ffffffffffffffff8111156122a8576122a7612990565b5b6040519080825280601f01601f1916602001820160405280156122da5781602001600182028036833780820191505090505b509050600082602083010190505b60011561233d578080600190039150507f3031323334353637383961626364656600000000000000000000000000000000600a86061a8153600a8581612331576123306134f8565b5b049450600085036122e8575b819350505050919050565b600080600090507a184f03e93ff9f4daa797ed6e38ed64bf6a1f01000000000000000083106123a6577a184f03e93ff9f4daa797ed6e38ed64bf6a1f010000000000000000838161239c5761239b6134f8565b5b0492506040810190505b6d04ee2d6d415b85acef810000000083106123e3576d04ee2d6d415b85acef810000000083816123d9576123d86134f8565b5b0492506020810190505b662386f26fc10000831061241257662386f26fc100008381612408576124076134f8565b5b0492506010810190505b6305f5e100831061243b576305f5e1008381612431576124306134f8565b5b0492506008810190505b6127108310612460576127108381612456576124556134f8565b5b0492506004810190505b606483106124835760648381612479576124786134f8565b5b0492506002810190505b600a8310612492576001810190505b80915050919050565b6040518060c0016040528060608152602001606081526020016060815260200160608152602001600081526020016000151581525090565b6000604051905090565b600080fd5b600080fd5b60007fffffffff0000000000000000000000000000000000000000000000000000000082169050919050565b61251c816124e7565b811461252757600080fd5b50565b60008135905061253981612513565b92915050565b600060208284031215612555576125546124dd565b5b60006125638482850161252a565b91505092915050565b60008115159050919050565b6125818161256c565b82525050565b600060208201905061259c6000830184612578565b92915050565b600081519050919050565b600082825260208201905092915050565b60005b838110156125dc5780820151818401526020810190506125c1565b60008484015250505050565b6000601f19601f8301169050919050565b6000612604826125a2565b61260e81856125ad565b935061261e8185602086016125be565b612627816125e8565b840191505092915050565b6000602082019050818103600083015261264c81846125f9565b905092915050565b6000819050919050565b61266781612654565b811461267257600080fd5b50565b6000813590506126848161265e565b92915050565b6000602082840312156126a05761269f6124dd565b5b60006126ae84828501612675565b91505092915050565b600073ffffffffffffffffffffffffffffffffffffffff82169050919050565b60006126e2826126b7565b9050919050565b6126f2816126d7565b82525050565b600060208201905061270d60008301846126e9565b92915050565b61271c816126d7565b811461272757600080fd5b50565b60008135905061273981612713565b92915050565b60008060408385031215612756576127556124dd565b5b60006127648582860161272a565b925050602061277585828601612675565b9150509250929050565b61278881612654565b82525050565b60006020820190506127a3600083018461277f565b92915050565b6000602082840312156127bf576127be6124dd565b5b60006127cd8482850161272a565b91505092915050565b600081519050919050565b600082825260208201905092915050565b6000819050602082019050919050565b61280b81612654565b82525050565b600061281d8383612802565b60208301905092915050565b6000602082019050919050565b6000612841826127d6565b61284b81856127e1565b9350612856836127f2565b8060005b8381101561288757815161286e8882612811565b975061287983612829565b92505060018101905061285a565b5085935050505092915050565b600060208201905081810360008301526128ae8184612836565b905092915050565b6000806000606084860312156128cf576128ce6124dd565b5b60006128dd8682870161272a565b93505060206128ee8682870161272a565b92505060406128ff86828701612675565b9150509250925092565b600060c082019050818103600083015261292381896125f9565b9050818103602083015261293781886125f9565b9050818103604083015261294b81876125f9565b9050818103606083015261295f81866125f9565b905061296e608083018561277f565b61297b60a0830184612578565b979650505050505050565b600080fd5b600080fd5b7f4e487b7100000000000000000000000000000000000000000000000000000000600052604160045260246000fd5b6129c8826125e8565b810181811067ffffffffffffffff821117156129e7576129e6612990565b5b80604052505050565b60006129fa6124d3565b9050612a0682826129bf565b919050565b600067ffffffffffffffff821115612a2657612a25612990565b5b612a2f826125e8565b9050602081019050919050565b82818337600083830152505050565b6000612a5e612a5984612a0b565b6129f0565b905082815260208101848484011115612a7a57612a7961298b565b5b612a85848285612a3c565b509392505050565b600082601f830112612aa257612aa1612986565b5b8135612ab2848260208601612a4b565b91505092915050565b60008060008060008060c08789031215612ad857612ad76124dd565b5b6000612ae689828a0161272a565b965050602087013567ffffffffffffffff811115612b0757612b066124e2565b5b612b1389828a01612a8d565b955050604087013567ffffffffffffffff811115612b3457612b336124e2565b5b612b4089828a01612a8d565b945050606087013567ffffffffffffffff811115612b6157612b606124e2565b5b612b6d89828a01612a8d565b935050608087013567ffffffffffffffff811115612b8e57612b8d6124e2565b5b612b9a89828a01612a8d565b92505060a087013567ffffffffffffffff811115612bbb57612bba6124e2565b5b612bc789828a01612a8d565b9150509295509295509295565b612bdd8161256c565b8114612be857600080fd5b50565b600081359050612bfa81612bd4565b92915050565b60008060408385031215612c1757612c166124dd565b5b6000612c258582860161272a565b9250506020612c3685828601612beb565b9150509250929050565b600067ffffffffffffffff821115612c5b57612c5a612990565b5b612c64826125e8565b9050602081019050919050565b6000612c84612c7f84612c40565b6129f0565b905082815260208101848484011115612ca057612c9f61298b565b5b612cab848285612a3c565b509392505050565b600082601f830112612cc857612cc7612986565b5b8135612cd8848260208601612c71565b91505092915050565b60008060008060808587031215612cfb57612cfa6124dd565b5b6000612d098782880161272a565b9450506020612d1a8782880161272a565b9350506040612d2b87828801612675565b925050606085013567ffffffffffffffff811115612d4c57612d4b6124e2565b5b612d5887828801612cb3565b91505092959194509250565b60008060408385031215612d7b57612d7a6124dd565b5b6000612d898582860161272a565b925050602083013567ffffffffffffffff811115612daa57612da96124e2565b5b612db685828601612a8d565b9150509250929050565b600082825260208201905092915050565b6000612ddc826125a2565b612de68185612dc0565b9350612df68185602086016125be565b612dff816125e8565b840191505092915050565b612e138161256c565b82525050565b600060c0830160008301518482036000860152612e368282612dd1565b91505060208301518482036020860152612e508282612dd1565b91505060408301518482036040860152612e6a8282612dd1565b91505060608301518482036060860152612e848282612dd1565b9150506080830151612e996080860182612802565b5060a0830151612eac60a0860182612e0a565b508091505092915050565b60006020820190508181036000830152612ed18184612e19565b905092915050565b60008060408385031215612ef057612eef6124dd565b5b6000612efe8582860161272a565b9250506020612f0f8582860161272a565b9150509250929050565b7f4e487b7100000000000000000000000000000000000000000000000000000000600052602260045260246000fd5b60006002820490506001821680612f6057607f821691505b602082108103612f7357612f72612f19565b5b50919050565b7f436572746966696361746520646f6573206e6f74206578697374000000000000600082015250565b6000612faf601a836125ad565b9150612fba82612f79565b602082019050919050565b60006020820190508181036000830152612fde81612fa2565b9050919050565b7f4e487b7100000000000000000000000000000000000000000000000000000000600052603260045260246000fd5b7f4e487b7100000000000000000000000000000000000000000000000000000000600052601160045260246000fd5b600061304e82612654565b91507fffffffffffffffffffffffffffffffffffffffffffffffffffffffffffffffff82036130805761307f613014565b5b600182019050919050565b60006060820190506130a060008301866126e9565b6130ad602083018561277f565b6130ba60408301846126e9565b949350505050565b60008190508160005260206000209050919050565b60006020601f8301049050919050565b600082821b905092915050565b6000600883026131247fffffffffffffffffffffffffffffffffffffffffffffffffffffffffffffffff826130e7565b61312e86836130e7565b95508019841693508086168417925050509392505050565b6000819050919050565b600061316b61316661316184612654565b613146565b612654565b9050919050565b6000819050919050565b61318583613150565b61319961319182613172565b8484546130f4565b825550505050565b600090565b6131ae6131a1565b6131b981848461317c565b505050565b5b818110156131dd576131d26000826131a6565b6001810190506131bf565b5050565b601f821115613222576131f3816130c2565b6131fc846130d7565b8101602085101561320b578190505b61321f613217856130d7565b8301826131be565b50505b505050565b600082821c905092915050565b600061324560001984600802613227565b1980831691505092915050565b600061325e8383613234565b9150826002028217905092915050565b613277826125a2565b67ffffffffffffffff8111156132905761328f612990565b5b61329a8254612f48565b6132a58282856131e1565b600060209050601f8311600181146132d857600084156132c6578287015190505b6132d08582613252565b865550613338565b601f1984166132e6866130c2565b60005b8281101561330e578489015182556001820191506020850194506020810190506132e9565b8683101561332b5784890151613327601f891682613234565b8355505b6001600288020188555050505b505050505050565b6000606082019050818103600083015261335a81866125f9565b9050818103602083015261336e81856125f9565b9050818103604083015261338281846125f9565b9050949350505050565b600081519050919050565b600082825260208201905092915050565b60006133b38261338c565b6133bd8185613397565b93506133cd8185602086016125be565b6133d6816125e8565b840191505092915050565b60006080820190506133f660008301876126e9565b61340360208301866126e9565b613410604083018561277f565b818103606083015261342281846133a8565b905095945050505050565b60008151905061343c81612513565b92915050565b600060208284031215613458576134576124dd565b5b60006134668482850161342d565b91505092915050565b600081905092915050565b6000613485826125a2565b61348f818561346f565b935061349f8185602086016125be565b80840191505092915050565b60006134b7828561347a565b91506134c3828461347a565b91508190509392505050565b60006040820190506134e460008301856126e9565b6134f1602083018461277f565b9392505050565b7f4e487b7100000000000000000000000000000000000000000000000000000000600052601260045260246000fdfea26469706673582212203edd0bd9a6022300a62b9822c7a454c2a0a2b340ebe72777d4911be0d9db240564736f6c63430008140033",
  "linkReferences": {},
  "deployedLinkReferences": {}
}